{
  "_format": "hh-sol-artifact-1",
  "contractName": "Sharknado",
  "sourceName": "contracts/Sharknado.sol",
  "abi": [
    {
      "inputs": [
        {
          "internalType": "address",
          "name": "semaphoreAddress",
          "type": "address"
        }
      ],
      "stateMutability": "nonpayable",
      "type": "constructor"
    },
    {
      "inputs": [],
      "name": "InvalidBountyAmount",
      "type": "error"
    },
    {
      "inputs": [],
      "name": "NullifierAlreadyExists",
      "type": "error"
    },
    {
      "inputs": [],
      "name": "OnlyEligibleHoldersCanJoin",
      "type": "error"
    },
    {
      "anonymous": false,
      "inputs": [
        {
          "indexed": false,
          "internalType": "uint256",
          "name": "groupId",
          "type": "uint256"
        }
      ],
      "name": "GroupJoined",
      "type": "event"
    },
    {
      "anonymous": false,
      "inputs": [
        {
          "indexed": false,
          "internalType": "address",
          "name": "lotteryPayoutAddress",
          "type": "address"
        }
      ],
      "name": "LotteryPayout",
      "type": "event"
    },
    {
      "anonymous": false,
      "inputs": [
        {
          "indexed": true,
          "internalType": "address",
          "name": "previousOwner",
          "type": "address"
        },
        {
          "indexed": true,
          "internalType": "address",
          "name": "newOwner",
          "type": "address"
        }
      ],
      "name": "OwnershipTransferred",
      "type": "event"
    },
    {
      "anonymous": false,
      "inputs": [
        {
          "indexed": false,
          "internalType": "uint256",
          "name": "questionId",
          "type": "uint256"
        },
        {
          "indexed": false,
          "internalType": "uint256",
          "name": "groupId",
          "type": "uint256"
        },
        {
          "indexed": false,
          "internalType": "string",
          "name": "question",
          "type": "string"
        },
        {
          "indexed": false,
          "internalType": "address",
          "name": "eligibleHolderTokenContract",
          "type": "address"
        },
        {
          "indexed": false,
          "internalType": "uint32",
          "name": "answerThreshold",
          "type": "uint32"
        },
        {
          "indexed": false,
          "internalType": "uint256",
          "name": "bountyAmount",
          "type": "uint256"
        }
      ],
      "name": "QuestionAdded",
      "type": "event"
    },
    {
      "anonymous": false,
      "inputs": [
        {
          "indexed": false,
          "internalType": "uint256",
          "name": "questionId",
          "type": "uint256"
        },
        {
          "indexed": false,
          "internalType": "uint256",
          "name": "groupId",
          "type": "uint256"
        },
        {
          "indexed": false,
          "internalType": "bool",
          "name": "isUpvote",
          "type": "bool"
        },
        {
          "indexed": false,
          "internalType": "uint256",
          "name": "totalVotes",
          "type": "uint256"
        }
      ],
      "name": "QuestionAnswered",
      "type": "event"
    },
    {
      "inputs": [
        {
          "internalType": "uint256",
          "name": "groupId",
          "type": "uint256"
        },
        {
          "internalType": "string",
          "name": "question",
          "type": "string"
        },
        {
          "internalType": "address",
          "name": "eligibleHolderTokenContract",
          "type": "address"
        },
        {
          "internalType": "uint32",
          "name": "answerThreshold",
          "type": "uint32"
        },
        {
          "internalType": "uint256",
          "name": "bountyAmount",
          "type": "uint256"
        }
      ],
      "name": "addQuestion",
      "outputs": [],
      "stateMutability": "payable",
      "type": "function"
    },
    {
      "inputs": [],
      "name": "getQuestionList",
      "outputs": [
        {
          "components": [
            {
              "internalType": "uint256",
              "name": "questionId",
              "type": "uint256"
            },
            {
              "internalType": "uint256",
              "name": "groupId",
              "type": "uint256"
            },
            {
              "internalType": "string",
              "name": "question",
              "type": "string"
            },
            {
              "internalType": "address",
              "name": "eligibleHolderTokenContract",
              "type": "address"
            },
            {
              "internalType": "uint32",
              "name": "answerThreshold",
              "type": "uint32"
            },
            {
              "internalType": "uint256",
              "name": "bountyAmount",
              "type": "uint256"
            },
            {
              "internalType": "uint32",
              "name": "upVote",
              "type": "uint32"
            },
            {
              "internalType": "uint32",
              "name": "downVote",
              "type": "uint32"
            },
            {
              "internalType": "address[]",
              "name": "lotteryPayoutAddresses",
              "type": "address[]"
            },
            {
              "internalType": "bool",
              "name": "isPayedOut",
              "type": "bool"
            }
          ],
          "internalType": "struct Sharknado.Question[]",
          "name": "",
          "type": "tuple[]"
        }
      ],
      "stateMutability": "view",
      "type": "function"
    },
    {
      "inputs": [
        {
          "internalType": "uint256",
          "name": "_questionId",
          "type": "uint256"
        },
        {
          "internalType": "uint256",
          "name": "_groupId",
          "type": "uint256"
        },
        {
          "internalType": "uint256",
          "name": "_identityCommitment",
          "type": "uint256"
        }
      ],
      "name": "joinGroup",
      "outputs": [],
      "stateMutability": "nonpayable",
      "type": "function"
    },
    {
      "inputs": [],
      "name": "owner",
      "outputs": [
        {
          "internalType": "address",
          "name": "",
          "type": "address"
        }
      ],
      "stateMutability": "view",
      "type": "function"
    },
    {
      "inputs": [
        {
          "internalType": "address",
          "name": "_address",
          "type": "address"
        },
        {
          "internalType": "bool",
          "name": "_isUpvote",
          "type": "bool"
        }
      ],
      "name": "packData",
      "outputs": [
        {
          "internalType": "uint256",
          "name": "",
          "type": "uint256"
        }
      ],
      "stateMutability": "pure",
      "type": "function"
    },
    {
      "inputs": [],
      "name": "renounceOwnership",
      "outputs": [],
      "stateMutability": "nonpayable",
      "type": "function"
    },
    {
      "inputs": [],
      "name": "semaphore",
      "outputs": [
        {
          "internalType": "contract ISemaphore",
          "name": "",
          "type": "address"
        }
      ],
      "stateMutability": "view",
      "type": "function"
    },
    {
      "inputs": [
        {
          "internalType": "uint256",
          "name": "_questionId",
          "type": "uint256"
        },
        {
          "internalType": "uint256",
          "name": "_groupId",
          "type": "uint256"
        },
        {
          "internalType": "bool",
          "name": "_isUpvote",
          "type": "bool"
        },
        {
          "internalType": "address",
          "name": "_lotteryPayoutAddress",
          "type": "address"
        },
        {
          "internalType": "uint256",
          "name": "_merkleTreeRoot",
          "type": "uint256"
        },
        {
          "internalType": "uint256",
          "name": "_nullifierHash",
          "type": "uint256"
        },
        {
          "internalType": "uint256[8]",
          "name": "_proof",
          "type": "uint256[8]"
        }
      ],
      "name": "sendAnswerToQuestion",
      "outputs": [],
      "stateMutability": "nonpayable",
      "type": "function"
    },
    {
      "inputs": [
        {
          "internalType": "address",
          "name": "newOwner",
          "type": "address"
        }
      ],
      "name": "transferOwnership",
      "outputs": [],
      "stateMutability": "nonpayable",
      "type": "function"
    },
    {
      "inputs": [
        {
          "internalType": "uint256",
          "name": "_packedData",
          "type": "uint256"
        }
      ],
      "name": "unpackData",
      "outputs": [
        {
          "internalType": "address",
          "name": "",
          "type": "address"
        },
        {
          "internalType": "bool",
          "name": "",
          "type": "bool"
        }
      ],
      "stateMutability": "pure",
      "type": "function"
    }
  ],
  "bytecode": "0x608060405260016002553480156200001657600080fd5b50604051620029863803806200298683398181016040528101906200003c919062000187565b6200005c62000050620000a460201b60201c565b620000ac60201b60201c565b80600160006101000a81548173ffffffffffffffffffffffffffffffffffffffff021916908373ffffffffffffffffffffffffffffffffffffffff1602179055505062000201565b600033905090565b60008060009054906101000a900473ffffffffffffffffffffffffffffffffffffffff169050816000806101000a81548173ffffffffffffffffffffffffffffffffffffffff021916908373ffffffffffffffffffffffffffffffffffffffff1602179055508173ffffffffffffffffffffffffffffffffffffffff168173ffffffffffffffffffffffffffffffffffffffff167f8be0079c531659141344cd1fd0a4f28419497f9722a3daafe3b4186f6b6457e060405160405180910390a35050565b6000815190506200018181620001e7565b92915050565b6000602082840312156200019a57600080fd5b6000620001aa8482850162000170565b91505092915050565b6000620001c082620001c7565b9050919050565b600073ffffffffffffffffffffffffffffffffffffffff82169050919050565b620001f281620001b3565b8114620001fe57600080fd5b50565b61277580620002116000396000f3fe6080604052600436106100915760003560e01c8063b9bc4a6611610059578063b9bc4a661461016c578063bc24070714610195578063d863e364146101d2578063ee250f7a146101ee578063f2fde38b1461021757610091565b80631e71a63d1461009657806356fe5bb0146100d4578063715018a6146100ff5780637b5d2534146101165780638da5cb5b14610141575b600080fd5b3480156100a257600080fd5b506100bd60048036038101906100b89190611bae565b610240565b6040516100cb9291906120e3565b60405180910390f35b3480156100e057600080fd5b506100e9610279565b6040516100f6919061210c565b60405180910390f35b34801561010b57600080fd5b506101146104fa565b005b34801561012257600080fd5b5061012b61050e565b604051610138919061212e565b60405180910390f35b34801561014d57600080fd5b50610156610534565b60405161016391906120c8565b60405180910390f35b34801561017857600080fd5b50610193600480360381019061018e9190611c8f565b61055d565b005b3480156101a157600080fd5b506101bc60048036038101906101b79190611b72565b610bb9565b6040516101c99190612189565b60405180910390f35b6101ec60048036038101906101e79190611c00565b610bf6565b005b3480156101fa57600080fd5b5061021560048036038101906102109190611d2e565b610f3d565b005b34801561022357600080fd5b5061023e60048036038101906102399190611b49565b61134f565b005b600080600073ffffffffffffffffffffffffffffffffffffffff84169050600060018060a087901c161490508181935093505050915091565b60606003805480602002602001604051908101604052809291908181526020016000905b828210156104f157838290600052602060002090600802016040518061014001604052908160008201548152602001600182015481526020016002820180546102e590612500565b80601f016020809104026020016040519081016040528092919081815260200182805461031190612500565b801561035e5780601f106103335761010080835404028352916020019161035e565b820191906000526020600020905b81548152906001019060200180831161034157829003601f168201915b505050505081526020016003820160009054906101000a900473ffffffffffffffffffffffffffffffffffffffff1673ffffffffffffffffffffffffffffffffffffffff1673ffffffffffffffffffffffffffffffffffffffff1681526020016003820160149054906101000a900463ffffffff1663ffffffff1663ffffffff168152602001600482015481526020016005820160009054906101000a900463ffffffff1663ffffffff1663ffffffff1681526020016005820160049054906101000a900463ffffffff1663ffffffff1663ffffffff168152602001600682018054806020026020016040519081016040528092919081815260200182805480156104be57602002820191906000526020600020905b8160009054906101000a900473ffffffffffffffffffffffffffffffffffffffff1673ffffffffffffffffffffffffffffffffffffffff1681526020019060010190808311610474575b505050505081526020016007820160009054906101000a900460ff1615151515815250508152602001906001019061029d565b50505050905090565b6105026113d3565b61050c6000611451565b565b600160009054906101000a900473ffffffffffffffffffffffffffffffffffffffff1681565b60008060009054906101000a900473ffffffffffffffffffffffffffffffffffffffff16905090565b60006105698587610bb9565b9050600160009054906101000a900473ffffffffffffffffffffffffffffffffffffffff1673ffffffffffffffffffffffffffffffffffffffff16633bc778e3888684878c886040518763ffffffff1660e01b81526004016105d096959493929190612249565b600060405180830381600087803b1580156105ea57600080fd5b505af11580156105fe573d6000803e3d6000fd5b5050505060006003898154811061063e577f4e487b7100000000000000000000000000000000000000000000000000000000600052603260045260246000fd5b906000526020600020906008020160405180610140016040529081600082015481526020016001820154815260200160028201805461067c90612500565b80601f01602080910402602001604051908101604052809291908181526020018280546106a890612500565b80156106f55780601f106106ca576101008083540402835291602001916106f5565b820191906000526020600020905b8154815290600101906020018083116106d857829003601f168201915b505050505081526020016003820160009054906101000a900473ffffffffffffffffffffffffffffffffffffffff1673ffffffffffffffffffffffffffffffffffffffff1673ffffffffffffffffffffffffffffffffffffffff1681526020016003820160149054906101000a900463ffffffff1663ffffffff1663ffffffff168152602001600482015481526020016005820160009054906101000a900463ffffffff1663ffffffff1663ffffffff1681526020016005820160049054906101000a900463ffffffff1663ffffffff1663ffffffff1681526020016006820180548060200260200160405190810160405280929190818152602001828054801561085557602002820191906000526020600020905b8160009054906101000a900473ffffffffffffffffffffffffffffffffffffffff1673ffffffffffffffffffffffffffffffffffffffff168152602001906001019080831161080b575b505050505081526020016007820160009054906101000a900460ff16151515158152505090508661088757600061088a565b60015b60ff168160c00181815161089e91906123f6565b91509063ffffffff16908163ffffffff1681525050866108bf5760016108c2565b60005b60ff168160e0018181516108d691906123f6565b91509063ffffffff16908163ffffffff16815250508060038a81548110610926577f4e487b7100000000000000000000000000000000000000000000000000000000600052603260045260246000fd5b90600052602060002090600802016000820151816000015560208201518160010155604082015181600201908051906020019061096492919061192d565b5060608201518160030160006101000a81548173ffffffffffffffffffffffffffffffffffffffff021916908373ffffffffffffffffffffffffffffffffffffffff16021790555060808201518160030160146101000a81548163ffffffff021916908363ffffffff16021790555060a0820151816004015560c08201518160050160006101000a81548163ffffffff021916908363ffffffff16021790555060e08201518160050160046101000a81548163ffffffff021916908363ffffffff160217905550610100820151816006019080519060200190610a489291906119b3565b506101208201518160070160006101000a81548160ff02191690831515021790555090505060038981548110610aa7577f4e487b7100000000000000000000000000000000000000000000000000000000600052603260045260246000fd5b9060005260206000209060080201600601869080600181540180825580915050600190039060005260206000200160009091909190916101000a81548173ffffffffffffffffffffffffffffffffffffffff021916908373ffffffffffffffffffffffffffffffffffffffff1602179055507fff12548204c751256342eb9733595a3dd609770bb0d1ef9add415ab3011db17c8989898460e001518560c00151610b5191906123f6565b604051610b619493929190612204565b60405180910390a1806101200151158015610b9f5750806080015163ffffffff168160e001518260c00151610b9691906123f6565b63ffffffff1610155b15610bae57610bad89611515565b5b505050505050505050565b60008060a083610bca576000610bcd565b60015b60ff16901b8473ffffffffffffffffffffffffffffffffffffffff161790508091505092915050565b610bfe6113d3565b803414610c37576040517f911730ce00000000000000000000000000000000000000000000000000000000815260040160405180910390fd5b600060149050600160009054906101000a900473ffffffffffffffffffffffffffffffffffffffff1673ffffffffffffffffffffffffffffffffffffffff16639c1121418783306040518463ffffffff1660e01b8152600401610c9c939291906121cd565b600060405180830381600087803b158015610cb657600080fd5b505af1158015610cca573d6000803e3d6000fd5b50505050600060405180610140016040528060025481526020018881526020018781526020018673ffffffffffffffffffffffffffffffffffffffff1681526020018563ffffffff168152602001848152602001600063ffffffff168152602001600063ffffffff168152602001600067ffffffffffffffff811115610d79577f4e487b7100000000000000000000000000000000000000000000000000000000600052604160045260246000fd5b604051908082528060200260200182016040528015610da75781602001602082028036833780820191505090505b508152602001600015158152509050600381908060018154018082558091505060019003906000526020600020906008020160009091909190915060008201518160000155602082015181600101556040820151816002019080519060200190610e1292919061192d565b5060608201518160030160006101000a81548173ffffffffffffffffffffffffffffffffffffffff021916908373ffffffffffffffffffffffffffffffffffffffff16021790555060808201518160030160146101000a81548163ffffffff021916908363ffffffff16021790555060a0820151816004015560c08201518160050160006101000a81548163ffffffff021916908363ffffffff16021790555060e08201518160050160046101000a81548163ffffffff021916908363ffffffff160217905550610100820151816006019080519060200190610ef69291906119b3565b506101208201518160070160006101000a81548160ff0219169083151502179055505050600160026000828254610f2d91906123a0565b9250508190555050505050505050565b600060038481548110610f79577f4e487b7100000000000000000000000000000000000000000000000000000000600052603260045260246000fd5b9060005260206000209060080201604051806101400160405290816000820154815260200160018201548152602001600282018054610fb790612500565b80601f0160208091040260200160405190810160405280929190818152602001828054610fe390612500565b80156110305780601f1061100557610100808354040283529160200191611030565b820191906000526020600020905b81548152906001019060200180831161101357829003601f168201915b505050505081526020016003820160009054906101000a900473ffffffffffffffffffffffffffffffffffffffff1673ffffffffffffffffffffffffffffffffffffffff1673ffffffffffffffffffffffffffffffffffffffff1681526020016003820160149054906101000a900463ffffffff1663ffffffff1663ffffffff168152602001600482015481526020016005820160009054906101000a900463ffffffff1663ffffffff1663ffffffff1681526020016005820160049054906101000a900463ffffffff1663ffffffff1663ffffffff1681526020016006820180548060200260200160405190810160405280929190818152602001828054801561119057602002820191906000526020600020905b8160009054906101000a900473ffffffffffffffffffffffffffffffffffffffff1673ffffffffffffffffffffffffffffffffffffffff1681526020019060010190808311611146575b505050505081526020016007820160009054906101000a900460ff161515151581525050905060008160600151905060008173ffffffffffffffffffffffffffffffffffffffff166370a08231336040518263ffffffff1660e01b81526004016111fa91906120c8565b60206040518083038186803b15801561121257600080fd5b505afa158015611226573d6000803e3d6000fd5b505050506040513d601f19601f8201168201806040525081019061124a9190611bd7565b1415611282576040517fcffe708f00000000000000000000000000000000000000000000000000000000815260040160405180910390fd5b600160009054906101000a900473ffffffffffffffffffffffffffffffffffffffff1673ffffffffffffffffffffffffffffffffffffffff16631783efc385856040518363ffffffff1660e01b81526004016112df9291906121a4565b600060405180830381600087803b1580156112f957600080fd5b505af115801561130d573d6000803e3d6000fd5b505050507f3a6af45548ef66c2de9183d8573c9cad5a0c64f09b16ae6182cf94e811cb66fa846040516113409190612189565b60405180910390a15050505050565b6113576113d3565b600073ffffffffffffffffffffffffffffffffffffffff168173ffffffffffffffffffffffffffffffffffffffff1614156113c7576040517f08c379a00000000000000000000000000000000000000000000000000000000081526004016113be90612149565b60405180910390fd5b6113d081611451565b50565b6113db6118ee565b73ffffffffffffffffffffffffffffffffffffffff166113f9610534565b73ffffffffffffffffffffffffffffffffffffffff161461144f576040517f08c379a000000000000000000000000000000000000000000000000000000000815260040161144690612169565b60405180910390fd5b565b60008060009054906101000a900473ffffffffffffffffffffffffffffffffffffffff169050816000806101000a81548173ffffffffffffffffffffffffffffffffffffffff021916908373ffffffffffffffffffffffffffffffffffffffff1602179055508173ffffffffffffffffffffffffffffffffffffffff168173ffffffffffffffffffffffffffffffffffffffff167f8be0079c531659141344cd1fd0a4f28419497f9722a3daafe3b4186f6b6457e060405160405180910390a35050565b600060038281548110611551577f4e487b7100000000000000000000000000000000000000000000000000000000600052603260045260246000fd5b906000526020600020906008020160405180610140016040529081600082015481526020016001820154815260200160028201805461158f90612500565b80601f01602080910402602001604051908101604052809291908181526020018280546115bb90612500565b80156116085780601f106115dd57610100808354040283529160200191611608565b820191906000526020600020905b8154815290600101906020018083116115eb57829003601f168201915b505050505081526020016003820160009054906101000a900473ffffffffffffffffffffffffffffffffffffffff1673ffffffffffffffffffffffffffffffffffffffff1673ffffffffffffffffffffffffffffffffffffffff1681526020016003820160149054906101000a900463ffffffff1663ffffffff1663ffffffff168152602001600482015481526020016005820160009054906101000a900463ffffffff1663ffffffff1663ffffffff1681526020016005820160049054906101000a900463ffffffff1663ffffffff1663ffffffff1681526020016006820180548060200260200160405190810160405280929190818152602001828054801561176857602002820191906000526020600020905b8160009054906101000a900473ffffffffffffffffffffffffffffffffffffffff1673ffffffffffffffffffffffffffffffffffffffff168152602001906001019080831161171e575b505050505081526020016007820160009054906101000a900460ff161515151581525050905060008160a00151905060008261010001515190506000816117ae836118f6565b6117b8919061256d565b9050600084610100015182815181106117fa577f4e487b7100000000000000000000000000000000000000000000000000000000600052603260045260246000fd5b60200260200101519050600160038781548110611840577f4e487b7100000000000000000000000000000000000000000000000000000000600052603260045260246000fd5b906000526020600020906008020160070160006101000a81548160ff0219169083151502179055508073ffffffffffffffffffffffffffffffffffffffff166108fc859081150290604051600060405180830381858888f193505050501580156118ae573d6000803e3d6000fd5b507f059568bab73bd93458eb3c2f195f22a3556fee68aa40349951d9938ce9cdd92e816040516118de91906120c8565b60405180910390a1505050505050565b600033905090565b600044428360405160200161190d9392919061208b565b6040516020818303038152906040528051906020012060001c9050919050565b82805461193990612500565b90600052602060002090601f01602090048101928261195b57600085556119a2565b82601f1061197457805160ff19168380011785556119a2565b828001600101855582156119a2579182015b828111156119a1578251825591602001919060010190611986565b5b5090506119af9190611a3d565b5090565b828054828255906000526020600020908101928215611a2c579160200282015b82811115611a2b5782518260006101000a81548173ffffffffffffffffffffffffffffffffffffffff021916908373ffffffffffffffffffffffffffffffffffffffff160217905550916020019190600101906119d3565b5b509050611a399190611a3d565b5090565b5b80821115611a56576000816000905550600101611a3e565b5090565b6000611a6d611a68846122d0565b6122ab565b905082815260208101848484011115611a8557600080fd5b611a908482856124be565b509392505050565b600081359050611aa7816126e3565b92915050565b600081905082602060080282011115611ac557600080fd5b92915050565b600081359050611ada816126fa565b92915050565b600082601f830112611af157600080fd5b8135611b01848260208601611a5a565b91505092915050565b600081359050611b1981612711565b92915050565b600081519050611b2e81612711565b92915050565b600081359050611b4381612728565b92915050565b600060208284031215611b5b57600080fd5b6000611b6984828501611a98565b91505092915050565b60008060408385031215611b8557600080fd5b6000611b9385828601611a98565b9250506020611ba485828601611acb565b9150509250929050565b600060208284031215611bc057600080fd5b6000611bce84828501611b0a565b91505092915050565b600060208284031215611be957600080fd5b6000611bf784828501611b1f565b91505092915050565b600080600080600060a08688031215611c1857600080fd5b6000611c2688828901611b0a565b955050602086013567ffffffffffffffff811115611c4357600080fd5b611c4f88828901611ae0565b9450506040611c6088828901611a98565b9350506060611c7188828901611b34565b9250506080611c8288828901611b0a565b9150509295509295909350565b60008060008060008060006101c0888a031215611cab57600080fd5b6000611cb98a828b01611b0a565b9750506020611cca8a828b01611b0a565b9650506040611cdb8a828b01611acb565b9550506060611cec8a828b01611a98565b9450506080611cfd8a828b01611b0a565b93505060a0611d0e8a828b01611b0a565b92505060c0611d1f8a828b01611aad565b91505092959891949750929550565b600080600060608486031215611d4357600080fd5b6000611d5186828701611b0a565b9350506020611d6286828701611b0a565b9250506040611d7386828701611b0a565b9150509250925092565b6000611d898383611da9565b60208301905092915050565b6000611da18383611f57565b905092915050565b611db281612430565b82525050565b611dc181612430565b82525050565b6000611dd282612321565b611ddc818561235c565b9350611de783612301565b8060005b83811015611e18578151611dff8882611d7d565b9750611e0a83612342565b925050600181019050611deb565b5085935050505092915050565b6000611e308261232c565b611e3a818561236d565b935083602082028501611e4c85612311565b8060005b85811015611e885784840389528151611e698582611d95565b9450611e748361234f565b925060208a01995050600181019050611e50565b50829750879550505050505092915050565b611ea761010083836124be565b5050565b611eb481612442565b82525050565b611ec381612442565b82525050565b611ed281612488565b82525050565b6000611ee382612337565b611eed818561237e565b9350611efd8185602086016124cd565b611f068161265a565b840191505092915050565b6000611f1e60268361238f565b9150611f298261266b565b604082019050919050565b6000611f4160208361238f565b9150611f4c826126ba565b602082019050919050565b600061014083016000830151611f706000860182612038565b506020830151611f836020860182612038565b5060408301518482036040860152611f9b8282611ed8565b9150506060830151611fb06060860182611da9565b506080830151611fc3608086018261207c565b5060a0830151611fd660a0860182612038565b5060c0830151611fe960c086018261207c565b5060e0830151611ffc60e086018261207c565b506101008301518482036101008601526120168282611dc7565b91505061012083015161202d610120860182611eab565b508091505092915050565b6120418161246e565b82525050565b6120508161246e565b82525050565b6120676120628261246e565b612563565b82525050565b612076816124ac565b82525050565b61208581612478565b82525050565b60006120978286612056565b6020820191506120a78285612056565b6020820191506120b78284612056565b602082019150819050949350505050565b60006020820190506120dd6000830184611db8565b92915050565b60006040820190506120f86000830185611db8565b6121056020830184611eba565b9392505050565b600060208201905081810360008301526121268184611e25565b905092915050565b60006020820190506121436000830184611ec9565b92915050565b6000602082019050818103600083015261216281611f11565b9050919050565b6000602082019050818103600083015261218281611f34565b9050919050565b600060208201905061219e6000830184612047565b92915050565b60006040820190506121b96000830185612047565b6121c66020830184612047565b9392505050565b60006060820190506121e26000830186612047565b6121ef6020830185612047565b6121fc6040830184611db8565b949350505050565b60006080820190506122196000830187612047565b6122266020830186612047565b6122336040830185611eba565b612240606083018461206d565b95945050505050565b60006101a08201905061225f6000830189612047565b61226c6020830188612047565b6122796040830187612047565b6122866060830186612047565b6122936080830185612047565b6122a060a0830184611e9a565b979650505050505050565b60006122b56122c6565b90506122c18282612532565b919050565b6000604051905090565b600067ffffffffffffffff8211156122eb576122ea61262b565b5b6122f48261265a565b9050602081019050919050565b6000819050602082019050919050565b6000819050602082019050919050565b600081519050919050565b600081519050919050565b600081519050919050565b6000602082019050919050565b6000602082019050919050565b600082825260208201905092915050565b600082825260208201905092915050565b600082825260208201905092915050565b600082825260208201905092915050565b60006123ab8261246e565b91506123b68361246e565b9250827fffffffffffffffffffffffffffffffffffffffffffffffffffffffffffffffff038211156123eb576123ea61259e565b5b828201905092915050565b600061240182612478565b915061240c83612478565b92508263ffffffff038211156124255761242461259e565b5b828201905092915050565b600061243b8261244e565b9050919050565b60008115159050919050565b600073ffffffffffffffffffffffffffffffffffffffff82169050919050565b6000819050919050565b600063ffffffff82169050919050565b60006124938261249a565b9050919050565b60006124a58261244e565b9050919050565b60006124b782612478565b9050919050565b82818337600083830152505050565b60005b838110156124eb5780820151818401526020810190506124d0565b838111156124fa576000848401525b50505050565b6000600282049050600182168061251857607f821691505b6020821081141561252c5761252b6125fc565b5b50919050565b61253b8261265a565b810181811067ffffffffffffffff8211171561255a5761255961262b565b5b80604052505050565b6000819050919050565b60006125788261246e565b91506125838361246e565b925082612593576125926125cd565b5b828206905092915050565b7f4e487b7100000000000000000000000000000000000000000000000000000000600052601160045260246000fd5b7f4e487b7100000000000000000000000000000000000000000000000000000000600052601260045260246000fd5b7f4e487b7100000000000000000000000000000000000000000000000000000000600052602260045260246000fd5b7f4e487b7100000000000000000000000000000000000000000000000000000000600052604160045260246000fd5b6000601f19601f8301169050919050565b7f4f776e61626c653a206e6577206f776e657220697320746865207a65726f206160008201527f6464726573730000000000000000000000000000000000000000000000000000602082015250565b7f4f776e61626c653a2063616c6c6572206973206e6f7420746865206f776e6572600082015250565b6126ec81612430565b81146126f757600080fd5b50565b61270381612442565b811461270e57600080fd5b50565b61271a8161246e565b811461272557600080fd5b50565b61273181612478565b811461273c57600080fd5b5056fea26469706673582212208f285b65082345ca5dea5687b688be9be2f81b0ec23a6fff6f88540c1abe47f064736f6c63430008040033",
  "linkReferences": {},
  "deployedLinkReferences": {}
}