{
  "_format": "hh-sol-artifact-1",
  "contractName": "Sharknado",
  "sourceName": "contracts/Sharknado.sol",
  "abi": [
    {
      "inputs": [
        {
          "internalType": "address",
          "name": "semaphoreAddress",
          "type": "address"
        }
      ],
      "stateMutability": "nonpayable",
      "type": "constructor"
    },
    {
      "inputs": [],
      "name": "InvalidBountyAmount",
      "type": "error"
    },
    {
      "inputs": [],
      "name": "NullifierAlreadyExists",
      "type": "error"
    },
    {
      "inputs": [],
      "name": "OnlyEligibleHoldersCanJoin",
      "type": "error"
    },
    {
      "anonymous": false,
      "inputs": [
        {
          "indexed": false,
          "internalType": "uint256",
          "name": "groupId",
          "type": "uint256"
        }
      ],
      "name": "GroupJoined",
      "type": "event"
    },
    {
      "anonymous": false,
      "inputs": [
        {
          "indexed": false,
          "internalType": "address",
          "name": "lotteryPayoutAddress",
          "type": "address"
        },
        {
          "indexed": false,
          "internalType": "uint256",
          "name": "questionId",
          "type": "uint256"
        },
        {
          "indexed": false,
          "internalType": "uint256",
          "name": "groupId",
          "type": "uint256"
        },
        {
          "indexed": false,
          "internalType": "string",
          "name": "question",
          "type": "string"
        },
        {
          "indexed": false,
          "internalType": "address",
          "name": "eligibleHolderTokenContract",
          "type": "address"
        },
        {
          "indexed": false,
          "internalType": "uint32",
          "name": "answerThreshold",
          "type": "uint32"
        },
        {
          "indexed": false,
          "internalType": "uint256",
          "name": "bountyAmount",
          "type": "uint256"
        },
        {
          "indexed": false,
          "internalType": "uint32",
          "name": "upVote",
          "type": "uint32"
        },
        {
          "indexed": false,
          "internalType": "uint32",
          "name": "downVote",
          "type": "uint32"
        }
      ],
      "name": "LotteryPayout",
      "type": "event"
    },
    {
      "anonymous": false,
      "inputs": [
        {
          "indexed": true,
          "internalType": "address",
          "name": "previousOwner",
          "type": "address"
        },
        {
          "indexed": true,
          "internalType": "address",
          "name": "newOwner",
          "type": "address"
        }
      ],
      "name": "OwnershipTransferred",
      "type": "event"
    },
    {
      "anonymous": false,
      "inputs": [
        {
          "indexed": false,
          "internalType": "uint256",
          "name": "questionId",
          "type": "uint256"
        },
        {
          "indexed": false,
          "internalType": "uint256",
          "name": "groupId",
          "type": "uint256"
        },
        {
          "indexed": false,
          "internalType": "string",
          "name": "question",
          "type": "string"
        },
        {
          "indexed": false,
          "internalType": "address",
          "name": "eligibleHolderTokenContract",
          "type": "address"
        },
        {
          "indexed": false,
          "internalType": "uint32",
          "name": "answerThreshold",
          "type": "uint32"
        },
        {
          "indexed": false,
          "internalType": "uint256",
          "name": "bountyAmount",
          "type": "uint256"
        }
      ],
      "name": "QuestionAdded",
      "type": "event"
    },
    {
      "anonymous": false,
      "inputs": [
        {
          "indexed": false,
          "internalType": "uint256",
          "name": "questionId",
          "type": "uint256"
        },
        {
          "indexed": false,
          "internalType": "uint256",
          "name": "groupId",
          "type": "uint256"
        },
        {
          "indexed": false,
          "internalType": "bool",
          "name": "isUpvote",
          "type": "bool"
        },
        {
          "indexed": false,
          "internalType": "uint256",
          "name": "totalVotes",
          "type": "uint256"
        }
      ],
      "name": "QuestionAnswered",
      "type": "event"
    },
    {
      "inputs": [
        {
          "internalType": "uint256",
          "name": "groupId",
          "type": "uint256"
        },
        {
          "internalType": "string",
          "name": "question",
          "type": "string"
        },
        {
          "internalType": "address",
          "name": "eligibleHolderTokenContract",
          "type": "address"
        },
        {
          "internalType": "uint32",
          "name": "answerThreshold",
          "type": "uint32"
        },
        {
          "internalType": "uint256",
          "name": "bountyAmount",
          "type": "uint256"
        }
      ],
      "name": "addQuestion",
      "outputs": [],
      "stateMutability": "payable",
      "type": "function"
    },
    {
      "inputs": [],
      "name": "getQuestionList",
      "outputs": [
        {
          "components": [
            {
              "internalType": "uint256",
              "name": "questionId",
              "type": "uint256"
            },
            {
              "internalType": "uint256",
              "name": "groupId",
              "type": "uint256"
            },
            {
              "internalType": "string",
              "name": "question",
              "type": "string"
            },
            {
              "internalType": "address",
              "name": "eligibleHolderTokenContract",
              "type": "address"
            },
            {
              "internalType": "uint32",
              "name": "answerThreshold",
              "type": "uint32"
            },
            {
              "internalType": "uint256",
              "name": "bountyAmount",
              "type": "uint256"
            },
            {
              "internalType": "uint32",
              "name": "upVote",
              "type": "uint32"
            },
            {
              "internalType": "uint32",
              "name": "downVote",
              "type": "uint32"
            },
            {
              "internalType": "address[]",
              "name": "lotteryPayoutAddresses",
              "type": "address[]"
            },
            {
              "internalType": "bool",
              "name": "isPayedOut",
              "type": "bool"
            }
          ],
          "internalType": "struct Sharknado.Question[]",
          "name": "",
          "type": "tuple[]"
        }
      ],
      "stateMutability": "view",
      "type": "function"
    },
    {
      "inputs": [
        {
          "internalType": "uint256",
          "name": "_questionId",
          "type": "uint256"
        },
        {
          "internalType": "uint256",
          "name": "_groupId",
          "type": "uint256"
        },
        {
          "internalType": "uint256",
          "name": "_identityCommitment",
          "type": "uint256"
        }
      ],
      "name": "joinGroup",
      "outputs": [],
      "stateMutability": "nonpayable",
      "type": "function"
    },
    {
      "inputs": [],
      "name": "owner",
      "outputs": [
        {
          "internalType": "address",
          "name": "",
          "type": "address"
        }
      ],
      "stateMutability": "view",
      "type": "function"
    },
    {
      "inputs": [
        {
          "internalType": "address",
          "name": "_address",
          "type": "address"
        },
        {
          "internalType": "bool",
          "name": "_isUpvote",
          "type": "bool"
        }
      ],
      "name": "packData",
      "outputs": [
        {
          "internalType": "uint256",
          "name": "",
          "type": "uint256"
        }
      ],
      "stateMutability": "pure",
      "type": "function"
    },
    {
      "inputs": [],
      "name": "renounceOwnership",
      "outputs": [],
      "stateMutability": "nonpayable",
      "type": "function"
    },
    {
      "inputs": [],
      "name": "semaphore",
      "outputs": [
        {
          "internalType": "contract ISemaphore",
          "name": "",
          "type": "address"
        }
      ],
      "stateMutability": "view",
      "type": "function"
    },
    {
      "inputs": [
        {
          "internalType": "uint256",
          "name": "_questionId",
          "type": "uint256"
        },
        {
          "internalType": "uint256",
          "name": "_groupId",
          "type": "uint256"
        },
        {
          "internalType": "bool",
          "name": "_isUpvote",
          "type": "bool"
        },
        {
          "internalType": "address",
          "name": "_lotteryPayoutAddress",
          "type": "address"
        },
        {
          "internalType": "uint256",
          "name": "_merkleTreeRoot",
          "type": "uint256"
        },
        {
          "internalType": "uint256",
          "name": "_nullifierHash",
          "type": "uint256"
        },
        {
          "internalType": "uint256[8]",
          "name": "_proof",
          "type": "uint256[8]"
        }
      ],
      "name": "sendAnswerToQuestion",
      "outputs": [],
      "stateMutability": "nonpayable",
      "type": "function"
    },
    {
      "inputs": [
        {
          "internalType": "address",
          "name": "newOwner",
          "type": "address"
        }
      ],
      "name": "transferOwnership",
      "outputs": [],
      "stateMutability": "nonpayable",
      "type": "function"
    },
    {
      "inputs": [
        {
          "internalType": "uint256",
          "name": "_packedData",
          "type": "uint256"
        }
      ],
      "name": "unpackData",
      "outputs": [
        {
          "internalType": "address",
          "name": "",
          "type": "address"
        },
        {
          "internalType": "bool",
          "name": "",
          "type": "bool"
        }
      ],
      "stateMutability": "pure",
      "type": "function"
    }
  ],
  "bytecode": "0x608060405260006002553480156200001657600080fd5b5060405162002a9238038062002a9283398181016040528101906200003c919062000187565b6200005c62000050620000a460201b60201c565b620000ac60201b60201c565b80600160006101000a81548173ffffffffffffffffffffffffffffffffffffffff021916908373ffffffffffffffffffffffffffffffffffffffff1602179055505062000201565b600033905090565b60008060009054906101000a900473ffffffffffffffffffffffffffffffffffffffff169050816000806101000a81548173ffffffffffffffffffffffffffffffffffffffff021916908373ffffffffffffffffffffffffffffffffffffffff1602179055508173ffffffffffffffffffffffffffffffffffffffff168173ffffffffffffffffffffffffffffffffffffffff167f8be0079c531659141344cd1fd0a4f28419497f9722a3daafe3b4186f6b6457e060405160405180910390a35050565b6000815190506200018181620001e7565b92915050565b6000602082840312156200019a57600080fd5b6000620001aa8482850162000170565b91505092915050565b6000620001c082620001c7565b9050919050565b600073ffffffffffffffffffffffffffffffffffffffff82169050919050565b620001f281620001b3565b8114620001fe57600080fd5b50565b61288180620002116000396000f3fe6080604052600436106100915760003560e01c8063b9bc4a6611610059578063b9bc4a661461016c578063bc24070714610195578063d863e364146101d2578063ee250f7a146101ee578063f2fde38b1461021757610091565b80631e71a63d1461009657806356fe5bb0146100d4578063715018a6146100ff5780637b5d2534146101165780638da5cb5b14610141575b600080fd5b3480156100a257600080fd5b506100bd60048036038101906100b89190611bde565b610240565b6040516100cb92919061215b565b60405180910390f35b3480156100e057600080fd5b506100e9610279565b6040516100f69190612218565b60405180910390f35b34801561010b57600080fd5b506101146104fa565b005b34801561012257600080fd5b5061012b61050e565b604051610138919061223a565b60405180910390f35b34801561014d57600080fd5b50610156610534565b6040516101639190612140565b60405180910390f35b34801561017857600080fd5b50610193600480360381019061018e9190611cbf565b61055d565b005b3480156101a157600080fd5b506101bc60048036038101906101b79190611ba2565b610bb9565b6040516101c99190612295565b60405180910390f35b6101ec60048036038101906101e79190611c30565b610bf6565b005b3480156101fa57600080fd5b5061021560048036038101906102109190611d5e565b610f3d565b005b34801561022357600080fd5b5061023e60048036038101906102399190611b79565b61134f565b005b600080600073ffffffffffffffffffffffffffffffffffffffff84169050600060018060a087901c161490508181935093505050915091565b60606003805480602002602001604051908101604052809291908181526020016000905b828210156104f157838290600052602060002090600802016040518061014001604052908160008201548152602001600182015481526020016002820180546102e59061260c565b80601f01602080910402602001604051908101604052809291908181526020018280546103119061260c565b801561035e5780601f106103335761010080835404028352916020019161035e565b820191906000526020600020905b81548152906001019060200180831161034157829003601f168201915b505050505081526020016003820160009054906101000a900473ffffffffffffffffffffffffffffffffffffffff1673ffffffffffffffffffffffffffffffffffffffff1673ffffffffffffffffffffffffffffffffffffffff1681526020016003820160149054906101000a900463ffffffff1663ffffffff1663ffffffff168152602001600482015481526020016005820160009054906101000a900463ffffffff1663ffffffff1663ffffffff1681526020016005820160049054906101000a900463ffffffff1663ffffffff1663ffffffff168152602001600682018054806020026020016040519081016040528092919081815260200182805480156104be57602002820191906000526020600020905b8160009054906101000a900473ffffffffffffffffffffffffffffffffffffffff1673ffffffffffffffffffffffffffffffffffffffff1681526020019060010190808311610474575b505050505081526020016007820160009054906101000a900460ff1615151515815250508152602001906001019061029d565b50505050905090565b6105026113d3565b61050c6000611451565b565b600160009054906101000a900473ffffffffffffffffffffffffffffffffffffffff1681565b60008060009054906101000a900473ffffffffffffffffffffffffffffffffffffffff16905090565b60006105698587610bb9565b9050600160009054906101000a900473ffffffffffffffffffffffffffffffffffffffff1673ffffffffffffffffffffffffffffffffffffffff16633bc778e3888684878c886040518763ffffffff1660e01b81526004016105d096959493929190612355565b600060405180830381600087803b1580156105ea57600080fd5b505af11580156105fe573d6000803e3d6000fd5b5050505060006003898154811061063e577f4e487b7100000000000000000000000000000000000000000000000000000000600052603260045260246000fd5b906000526020600020906008020160405180610140016040529081600082015481526020016001820154815260200160028201805461067c9061260c565b80601f01602080910402602001604051908101604052809291908181526020018280546106a89061260c565b80156106f55780601f106106ca576101008083540402835291602001916106f5565b820191906000526020600020905b8154815290600101906020018083116106d857829003601f168201915b505050505081526020016003820160009054906101000a900473ffffffffffffffffffffffffffffffffffffffff1673ffffffffffffffffffffffffffffffffffffffff1673ffffffffffffffffffffffffffffffffffffffff1681526020016003820160149054906101000a900463ffffffff1663ffffffff1663ffffffff168152602001600482015481526020016005820160009054906101000a900463ffffffff1663ffffffff1663ffffffff1681526020016005820160049054906101000a900463ffffffff1663ffffffff1663ffffffff1681526020016006820180548060200260200160405190810160405280929190818152602001828054801561085557602002820191906000526020600020905b8160009054906101000a900473ffffffffffffffffffffffffffffffffffffffff1673ffffffffffffffffffffffffffffffffffffffff168152602001906001019080831161080b575b505050505081526020016007820160009054906101000a900460ff16151515158152505090508661088757600061088a565b60015b60ff168160c00181815161089e9190612502565b91509063ffffffff16908163ffffffff1681525050866108bf5760016108c2565b60005b60ff168160e0018181516108d69190612502565b91509063ffffffff16908163ffffffff16815250508060038a81548110610926577f4e487b7100000000000000000000000000000000000000000000000000000000600052603260045260246000fd5b90600052602060002090600802016000820151816000015560208201518160010155604082015181600201908051906020019061096492919061195d565b5060608201518160030160006101000a81548173ffffffffffffffffffffffffffffffffffffffff021916908373ffffffffffffffffffffffffffffffffffffffff16021790555060808201518160030160146101000a81548163ffffffff021916908363ffffffff16021790555060a0820151816004015560c08201518160050160006101000a81548163ffffffff021916908363ffffffff16021790555060e08201518160050160046101000a81548163ffffffff021916908363ffffffff160217905550610100820151816006019080519060200190610a489291906119e3565b506101208201518160070160006101000a81548160ff02191690831515021790555090505060038981548110610aa7577f4e487b7100000000000000000000000000000000000000000000000000000000600052603260045260246000fd5b9060005260206000209060080201600601869080600181540180825580915050600190039060005260206000200160009091909190916101000a81548173ffffffffffffffffffffffffffffffffffffffff021916908373ffffffffffffffffffffffffffffffffffffffff1602179055507fff12548204c751256342eb9733595a3dd609770bb0d1ef9add415ab3011db17c8989898460e001518560c00151610b519190612502565b604051610b619493929190612310565b60405180910390a1806101200151158015610b9f5750806080015163ffffffff168160e001518260c00151610b969190612502565b63ffffffff1610155b15610bae57610bad89611515565b5b505050505050505050565b60008060a083610bca576000610bcd565b60015b60ff16901b8473ffffffffffffffffffffffffffffffffffffffff161790508091505092915050565b610bfe6113d3565b803414610c37576040517f911730ce00000000000000000000000000000000000000000000000000000000815260040160405180910390fd5b600060149050600160009054906101000a900473ffffffffffffffffffffffffffffffffffffffff1673ffffffffffffffffffffffffffffffffffffffff16639c1121418783306040518463ffffffff1660e01b8152600401610c9c939291906122d9565b600060405180830381600087803b158015610cb657600080fd5b505af1158015610cca573d6000803e3d6000fd5b50505050600060405180610140016040528060025481526020018881526020018781526020018673ffffffffffffffffffffffffffffffffffffffff1681526020018563ffffffff168152602001848152602001600063ffffffff168152602001600063ffffffff168152602001600067ffffffffffffffff811115610d79577f4e487b7100000000000000000000000000000000000000000000000000000000600052604160045260246000fd5b604051908082528060200260200182016040528015610da75781602001602082028036833780820191505090505b508152602001600015158152509050600381908060018154018082558091505060019003906000526020600020906008020160009091909190915060008201518160000155602082015181600101556040820151816002019080519060200190610e1292919061195d565b5060608201518160030160006101000a81548173ffffffffffffffffffffffffffffffffffffffff021916908373ffffffffffffffffffffffffffffffffffffffff16021790555060808201518160030160146101000a81548163ffffffff021916908363ffffffff16021790555060a0820151816004015560c08201518160050160006101000a81548163ffffffff021916908363ffffffff16021790555060e08201518160050160046101000a81548163ffffffff021916908363ffffffff160217905550610100820151816006019080519060200190610ef69291906119e3565b506101208201518160070160006101000a81548160ff0219169083151502179055505050600160026000828254610f2d91906124ac565b9250508190555050505050505050565b600060038481548110610f79577f4e487b7100000000000000000000000000000000000000000000000000000000600052603260045260246000fd5b9060005260206000209060080201604051806101400160405290816000820154815260200160018201548152602001600282018054610fb79061260c565b80601f0160208091040260200160405190810160405280929190818152602001828054610fe39061260c565b80156110305780601f1061100557610100808354040283529160200191611030565b820191906000526020600020905b81548152906001019060200180831161101357829003601f168201915b505050505081526020016003820160009054906101000a900473ffffffffffffffffffffffffffffffffffffffff1673ffffffffffffffffffffffffffffffffffffffff1673ffffffffffffffffffffffffffffffffffffffff1681526020016003820160149054906101000a900463ffffffff1663ffffffff1663ffffffff168152602001600482015481526020016005820160009054906101000a900463ffffffff1663ffffffff1663ffffffff1681526020016005820160049054906101000a900463ffffffff1663ffffffff1663ffffffff1681526020016006820180548060200260200160405190810160405280929190818152602001828054801561119057602002820191906000526020600020905b8160009054906101000a900473ffffffffffffffffffffffffffffffffffffffff1673ffffffffffffffffffffffffffffffffffffffff1681526020019060010190808311611146575b505050505081526020016007820160009054906101000a900460ff161515151581525050905060008160600151905060008173ffffffffffffffffffffffffffffffffffffffff166370a08231336040518263ffffffff1660e01b81526004016111fa9190612140565b60206040518083038186803b15801561121257600080fd5b505afa158015611226573d6000803e3d6000fd5b505050506040513d601f19601f8201168201806040525081019061124a9190611c07565b1415611282576040517fcffe708f00000000000000000000000000000000000000000000000000000000815260040160405180910390fd5b600160009054906101000a900473ffffffffffffffffffffffffffffffffffffffff1673ffffffffffffffffffffffffffffffffffffffff16631783efc385856040518363ffffffff1660e01b81526004016112df9291906122b0565b600060405180830381600087803b1580156112f957600080fd5b505af115801561130d573d6000803e3d6000fd5b505050507f3a6af45548ef66c2de9183d8573c9cad5a0c64f09b16ae6182cf94e811cb66fa846040516113409190612295565b60405180910390a15050505050565b6113576113d3565b600073ffffffffffffffffffffffffffffffffffffffff168173ffffffffffffffffffffffffffffffffffffffff1614156113c7576040517f08c379a00000000000000000000000000000000000000000000000000000000081526004016113be90612255565b60405180910390fd5b6113d081611451565b50565b6113db61191e565b73ffffffffffffffffffffffffffffffffffffffff166113f9610534565b73ffffffffffffffffffffffffffffffffffffffff161461144f576040517f08c379a000000000000000000000000000000000000000000000000000000000815260040161144690612275565b60405180910390fd5b565b60008060009054906101000a900473ffffffffffffffffffffffffffffffffffffffff169050816000806101000a81548173ffffffffffffffffffffffffffffffffffffffff021916908373ffffffffffffffffffffffffffffffffffffffff1602179055508173ffffffffffffffffffffffffffffffffffffffff168173ffffffffffffffffffffffffffffffffffffffff167f8be0079c531659141344cd1fd0a4f28419497f9722a3daafe3b4186f6b6457e060405160405180910390a35050565b600060038281548110611551577f4e487b7100000000000000000000000000000000000000000000000000000000600052603260045260246000fd5b906000526020600020906008020160405180610140016040529081600082015481526020016001820154815260200160028201805461158f9061260c565b80601f01602080910402602001604051908101604052809291908181526020018280546115bb9061260c565b80156116085780601f106115dd57610100808354040283529160200191611608565b820191906000526020600020905b8154815290600101906020018083116115eb57829003601f168201915b505050505081526020016003820160009054906101000a900473ffffffffffffffffffffffffffffffffffffffff1673ffffffffffffffffffffffffffffffffffffffff1673ffffffffffffffffffffffffffffffffffffffff1681526020016003820160149054906101000a900463ffffffff1663ffffffff1663ffffffff168152602001600482015481526020016005820160009054906101000a900463ffffffff1663ffffffff1663ffffffff1681526020016005820160049054906101000a900463ffffffff1663ffffffff1663ffffffff1681526020016006820180548060200260200160405190810160405280929190818152602001828054801561176857602002820191906000526020600020905b8160009054906101000a900473ffffffffffffffffffffffffffffffffffffffff1673ffffffffffffffffffffffffffffffffffffffff168152602001906001019080831161171e575b505050505081526020016007820160009054906101000a900460ff161515151581525050905060008160a00151905060008261010001515190506000816117ae83611926565b6117b89190612679565b9050600084610100015182815181106117fa577f4e487b7100000000000000000000000000000000000000000000000000000000600052603260045260246000fd5b60200260200101519050600160038781548110611840577f4e487b7100000000000000000000000000000000000000000000000000000000600052603260045260246000fd5b906000526020600020906008020160070160006101000a81548160ff0219169083151502179055508073ffffffffffffffffffffffffffffffffffffffff166108fc859081150290604051600060405180830381858888f193505050501580156118ae573d6000803e3d6000fd5b507f97b7e0d5c6e71b32fcbcdf5e2c4c6e7584c15ada7922208eafccd07cbc2cbc518186600001518760200151886040015189606001518a608001518b60a001518c60c001518d60e0015160405161190e99989796959493929190612184565b60405180910390a1505050505050565b600033905090565b600044428360405160200161193d93929190612103565b6040516020818303038152906040528051906020012060001c9050919050565b8280546119699061260c565b90600052602060002090601f01602090048101928261198b57600085556119d2565b82601f106119a457805160ff19168380011785556119d2565b828001600101855582156119d2579182015b828111156119d15782518255916020019190600101906119b6565b5b5090506119df9190611a6d565b5090565b828054828255906000526020600020908101928215611a5c579160200282015b82811115611a5b5782518260006101000a81548173ffffffffffffffffffffffffffffffffffffffff021916908373ffffffffffffffffffffffffffffffffffffffff16021790555091602001919060010190611a03565b5b509050611a699190611a6d565b5090565b5b80821115611a86576000816000905550600101611a6e565b5090565b6000611a9d611a98846123dc565b6123b7565b905082815260208101848484011115611ab557600080fd5b611ac08482856125ca565b509392505050565b600081359050611ad7816127ef565b92915050565b600081905082602060080282011115611af557600080fd5b92915050565b600081359050611b0a81612806565b92915050565b600082601f830112611b2157600080fd5b8135611b31848260208601611a8a565b91505092915050565b600081359050611b498161281d565b92915050565b600081519050611b5e8161281d565b92915050565b600081359050611b7381612834565b92915050565b600060208284031215611b8b57600080fd5b6000611b9984828501611ac8565b91505092915050565b60008060408385031215611bb557600080fd5b6000611bc385828601611ac8565b9250506020611bd485828601611afb565b9150509250929050565b600060208284031215611bf057600080fd5b6000611bfe84828501611b3a565b91505092915050565b600060208284031215611c1957600080fd5b6000611c2784828501611b4f565b91505092915050565b600080600080600060a08688031215611c4857600080fd5b6000611c5688828901611b3a565b955050602086013567ffffffffffffffff811115611c7357600080fd5b611c7f88828901611b10565b9450506040611c9088828901611ac8565b9350506060611ca188828901611b64565b9250506080611cb288828901611b3a565b9150509295509295909350565b60008060008060008060006101c0888a031215611cdb57600080fd5b6000611ce98a828b01611b3a565b9750506020611cfa8a828b01611b3a565b9650506040611d0b8a828b01611afb565b9550506060611d1c8a828b01611ac8565b9450506080611d2d8a828b01611b3a565b93505060a0611d3e8a828b01611b3a565b92505060c0611d4f8a828b01611add565b91505092959891949750929550565b600080600060608486031215611d7357600080fd5b6000611d8186828701611b3a565b9350506020611d9286828701611b3a565b9250506040611da386828701611b3a565b9150509250925092565b6000611db98383611dd9565b60208301905092915050565b6000611dd18383611fc0565b905092915050565b611de28161253c565b82525050565b611df18161253c565b82525050565b6000611e028261242d565b611e0c8185612468565b9350611e178361240d565b8060005b83811015611e48578151611e2f8882611dad565b9750611e3a8361244e565b925050600181019050611e1b565b5085935050505092915050565b6000611e6082612438565b611e6a8185612479565b935083602082028501611e7c8561241d565b8060005b85811015611eb85784840389528151611e998582611dc5565b9450611ea48361245b565b925060208a01995050600181019050611e80565b50829750879550505050505092915050565b611ed761010083836125ca565b5050565b611ee48161254e565b82525050565b611ef38161254e565b82525050565b611f0281612594565b82525050565b6000611f1382612443565b611f1d818561248a565b9350611f2d8185602086016125d9565b611f3681612766565b840191505092915050565b6000611f4c82612443565b611f56818561249b565b9350611f668185602086016125d9565b611f6f81612766565b840191505092915050565b6000611f8760268361249b565b9150611f9282612777565b604082019050919050565b6000611faa60208361249b565b9150611fb5826127c6565b602082019050919050565b600061014083016000830151611fd960008601826120a1565b506020830151611fec60208601826120a1565b50604083015184820360408601526120048282611f08565b91505060608301516120196060860182611dd9565b50608083015161202c60808601826120e5565b5060a083015161203f60a08601826120a1565b5060c083015161205260c08601826120e5565b5060e083015161206560e08601826120e5565b5061010083015184820361010086015261207f8282611df7565b915050610120830151612096610120860182611edb565b508091505092915050565b6120aa8161257a565b82525050565b6120b98161257a565b82525050565b6120d06120cb8261257a565b61266f565b82525050565b6120df816125b8565b82525050565b6120ee81612584565b82525050565b6120fd81612584565b82525050565b600061210f82866120bf565b60208201915061211f82856120bf565b60208201915061212f82846120bf565b602082019150819050949350505050565b60006020820190506121556000830184611de8565b92915050565b60006040820190506121706000830185611de8565b61217d6020830184611eea565b9392505050565b60006101208201905061219a600083018c611de8565b6121a7602083018b6120b0565b6121b4604083018a6120b0565b81810360608301526121c68189611f41565b90506121d56080830188611de8565b6121e260a08301876120f4565b6121ef60c08301866120b0565b6121fc60e08301856120f4565b61220a6101008301846120f4565b9a9950505050505050505050565b600060208201905081810360008301526122328184611e55565b905092915050565b600060208201905061224f6000830184611ef9565b92915050565b6000602082019050818103600083015261226e81611f7a565b9050919050565b6000602082019050818103600083015261228e81611f9d565b9050919050565b60006020820190506122aa60008301846120b0565b92915050565b60006040820190506122c560008301856120b0565b6122d260208301846120b0565b9392505050565b60006060820190506122ee60008301866120b0565b6122fb60208301856120b0565b6123086040830184611de8565b949350505050565b600060808201905061232560008301876120b0565b61233260208301866120b0565b61233f6040830185611eea565b61234c60608301846120d6565b95945050505050565b60006101a08201905061236b60008301896120b0565b61237860208301886120b0565b61238560408301876120b0565b61239260608301866120b0565b61239f60808301856120b0565b6123ac60a0830184611eca565b979650505050505050565b60006123c16123d2565b90506123cd828261263e565b919050565b6000604051905090565b600067ffffffffffffffff8211156123f7576123f6612737565b5b61240082612766565b9050602081019050919050565b6000819050602082019050919050565b6000819050602082019050919050565b600081519050919050565b600081519050919050565b600081519050919050565b6000602082019050919050565b6000602082019050919050565b600082825260208201905092915050565b600082825260208201905092915050565b600082825260208201905092915050565b600082825260208201905092915050565b60006124b78261257a565b91506124c28361257a565b9250827fffffffffffffffffffffffffffffffffffffffffffffffffffffffffffffffff038211156124f7576124f66126aa565b5b828201905092915050565b600061250d82612584565b915061251883612584565b92508263ffffffff03821115612531576125306126aa565b5b828201905092915050565b60006125478261255a565b9050919050565b60008115159050919050565b600073ffffffffffffffffffffffffffffffffffffffff82169050919050565b6000819050919050565b600063ffffffff82169050919050565b600061259f826125a6565b9050919050565b60006125b18261255a565b9050919050565b60006125c382612584565b9050919050565b82818337600083830152505050565b60005b838110156125f75780820151818401526020810190506125dc565b83811115612606576000848401525b50505050565b6000600282049050600182168061262457607f821691505b6020821081141561263857612637612708565b5b50919050565b61264782612766565b810181811067ffffffffffffffff8211171561266657612665612737565b5b80604052505050565b6000819050919050565b60006126848261257a565b915061268f8361257a565b92508261269f5761269e6126d9565b5b828206905092915050565b7f4e487b7100000000000000000000000000000000000000000000000000000000600052601160045260246000fd5b7f4e487b7100000000000000000000000000000000000000000000000000000000600052601260045260246000fd5b7f4e487b7100000000000000000000000000000000000000000000000000000000600052602260045260246000fd5b7f4e487b7100000000000000000000000000000000000000000000000000000000600052604160045260246000fd5b6000601f19601f8301169050919050565b7f4f776e61626c653a206e6577206f776e657220697320746865207a65726f206160008201527f6464726573730000000000000000000000000000000000000000000000000000602082015250565b7f4f776e61626c653a2063616c6c6572206973206e6f7420746865206f776e6572600082015250565b6127f88161253c565b811461280357600080fd5b50565b61280f8161254e565b811461281a57600080fd5b50565b6128268161257a565b811461283157600080fd5b50565b61283d81612584565b811461284857600080fd5b5056fea26469706673582212203821cbfc0df847525709579257e3827e1d31286905535b7859a97bd07cdb9a8864736f6c63430008040033",
  "linkReferences": {},
  "deployedLinkReferences": {}
}